:020000040000FA
:0400000085EF09F08F
:080008003EEF0AF0010E9B27F8
:100010009B33FF0E9B17000000009B2FFCD71200A4
:100020009553000001E11200F90E000000000000ED
:10003000000000000000FF0FD8A4F7D70000000068
:1000400000000000000000000000952FEDD7120016
:10005000FA0E956F10EC00F0FA0E956F10EC00F0B0
:10006000FA0E956F10EC00F0FA0E956F10EC00F0A0
:10007000942FEED71200800E9C6F9C53D8B41200C0
:1000800081989C519B1502E0818601D081968188E0
:10009000D8909C33F2D7818A81988196280E0001EE
:1000A0009B6F06EC00F0120081968198819A1200F5
:1000B000070E00019A6F010E996F090E99611200E7
:1000C00054EC00F099519B6F3BEC00F000EE68F0AF
:1000D000E9509A51E926EF509B6F3BEC00F09951A3
:1000E0009B6F3BEC00F000EE60F0E9509A51E9267E
:1000F000EF509B6F3BEC00F04BEC00F09A07992B14
:10010000DCD7A56B080EA56112009B51EA6E9A51CF
:10011000E96EEF5242E0990520E100EE05F0E9506A
:10012000EA50A76FE950A86F9B51EA6E9A51E96EA9
:100130009A4B9B2B200EEF5CA66FA651A827A851C7
:10014000E96EA751EA6EEF50A96F00EE60F0E9503A
:10015000A551E926A951EF6E31D000EE05F0E95026
:10016000EA50A76FE950A86F9B51EA6E9A51E96E69
:100170009A4B9B2B200EEF5CA66FA651A827A85187
:10018000E96EA751EA6EEF50A96F00EE68F0E950F2
:10019000A551E926A951EF6E11D0990508E100EEAD
:1001A00060F0E950A551E926000EEF6E07D000EE91
:1001B00068F0E950A551E926000EEF6EA52BA2D7F5
:1001C00000EE05F0E950200E9B5DE926EF509D6F93
:1001D0009C5303E0800E9D119D6F860508E100EEA3
:1001E00060F0E9508751E9269D51EF6E07D000EE8F
:1001F00068F0E9508751E9269D51EF6E080E87613E
:100200001200872B1200020E0001996F530E9C6F93
:100210006E0E9D6F640E9E6F200E9F6F4F0EA06F2F
:10022000460EA16FA26FA36B000E9B6F9C0E9A6F80
:1002300081EC00F058EC00F0120054EC00F00B0ED2
:1002400000019B6F3BEC00F0070E9B6F3BEC00F056
:100250000B0E9B6F3BEC00F0070E9B6F3BEC00F02E
:100260004BEC00F054EC00F0090E9B6F3BEC00F0FF
:100270009B6B3BEC00F0090E9B6F3BEC00F09B6B23
:100280003BEC00F04BEC00F054EC00F00A0E9B6FDE
:100290003BEC00F0060E9B6F3BEC00F00A0E9B6FF0
:1002A0003BEC00F0060E9B6F3BEC00F04BEC00F0DB
:1002B00012009C5173259D6F9CAF05D09D517361B9
:1002C00006D09D6B04D073519D6101D09D699D51F5
:1002D0009E6F1200686B696B020E866F955312E079
:1002E000876B94AF05D04C0E9B6F9C6BE0EC00F0DD
:1002F000000E94BF07D0946505D0720E9B6F9C6B67
:10030000E0EC00F0010E876F94AF05D02D0E9B6FCF
:100310009C6BE0EC00F0000E94BF09D0946507D010
:10032000955305E02D0E9B6F9C6BE0EC00F0000EEA
:10033000946101D005D094BF03D09451966F03D03F
:10034000941D966F962B976B96A102D0050E976F12
:100350009653D8909633020E876F0A0E966101D09D
:1003600008D0310E9B6F9C6BE0EC00F00A0E965F9C
:1003700005D0200E9B6F9C6BE0EC00F0300E9625B4
:100380009B6F010E9C6FE0EC00F0300E97259B6F89
:100390009C6BE0EC00F0200E9B6F9C6BE0EC00F09F
:1003A000640E9B6F9C6BE0EC00F0620E9B6F9C6B8D
:1003B000E0EC00F058EC00F012000001966B976B37
:1003C000986B996B9A6B9B6B775305E173519A6F9E
:1003D00073519B6F18D0000E77BF0DD077650BD08F
:1003E000FF0E7703F3509C6F59EC01F09E519A6F0A
:1003F00073519B6F08D077519C6F59EC01F09E515F
:100400009B6F73519A6F78530DE179519C6F59EC42
:1004100001F09E51986F79519C6F59EC01F09E51FB
:10042000996F29D0000E78BF19D0786517D0FF0ECC
:100430007803F3509C6FF4509D6FFF0E7803F350D8
:100440009D2779519C2759EC01F09E51986F795165
:100450009C6F59EC01F09E51996F0DD07951782520
:100460009C6F59EC01F09E51996F79519C6F59EC3A
:1004700001F09E51986F7A519C6F59EC01F09E519A
:10048000976F7B519C6F59EC01F09E51966F80677E
:100490000DD09C6B040E9C6109D000EE96F0E950E3
:1004A0009C51E926000EEF6E9C2BF4D7735302E0AB
:1004B000740510E19C6B060E9C6109D000EE96F06D
:1004C000E9509C51E926000EEF6E9C2BF4D78088F2
:1004D000809A02D08098808A8294956B060E9561EE
:1004E00016D0800E9C6F9C5310E0829200EE96F026
:1004F000E9509551E9269C51EF1402E0828001D029
:1005000082908282D8909C33EED7952BE7D7828455
:1005100012000001956B815306E07E5304E1BF0E8B
:100520009517400E95277E530AE07E050DE0020EDA
:100530007E6301D00ED0030E7E6314D00FD0430E25
:100540009517200E95270ED0430E9517040E95276C
:1005500009D0430E9517080E952704D0430E951722
:10056000100E95277F51030802E37F5195277C6782
:1005700001D0956B8494010E966F96530BE09651C3
:10058000951502E0848001D0849084828492D89072
:100590009637F3D7848412000001956B966B5F0E3B
:1005A000976F986B686B696B745303E003EC01F011
:1005B00062D0020E866FC00E736302D0976B1ED09E
:1005C000C00E736509D07351FF089B6FD8909B33A1
:1005D0009B511F08976F12D0C00E73610FD07351DB
:1005E000FE089B6FD8909B331F0E9B5D976F010E8B
:1005F000876F2D0E9B6F9C6BE0EC00F073A102D017
:10060000050E986F996B9A6B0A0E976101D005D011
:100610000A0E975D976F992BF7D797519A6F020E35
:10062000876F995306E1200E9B6F9C6BE0EC00F006
:1006300006D0300E99259B6F9C6BE0EC00F0300EDD
:100640009A259B6F010E9C6FE0EC00F0300E982510
:100650009B6F9C6BE0EC00F0200E9B6F9C6BE0ECC2
:1006600000F0640E9B6F9C6BE0EC00F0620E9B6FE1
:100670009C6BE0EC00F0735302E0740503E1809A98
:1006800080881200808A8098120000017E530AE060
:100690007E0521E0020E7E6301D036D0030E7E631C
:1006A000120045D0010E996F200EA06F310EA26F7F
:1006B000350EA16F450E9D6F9F6F4C0E9E6F540EB1
:1006C0009C6FA36B000E9B6F9C0E9A6F81EC00F0E9
:1006D000DB0E656F1200010E996F200E9F6F430EA7
:1006E0009C6FA06F610EA16F680E9D6F720E9E6F62
:1006F000730EA26F740EA36FA46B000E9B6F9C0E03
:100700009A6F81EC00F01200010E996F500E9C6FF1
:10071000680E9D6F6E0E9F6F6F0E9E6FA06FA16B28
:10072000000E9B6F9C0E9A6F81EC00F01200010E80
:10073000996F410E9C6F4C0E9D6F740E9E6F9F6B58
:10074000000E9B6F9C0E9A6F81EC00F01200010E60
:100750000001996F460E9C6F410E9D6F550E9E6F66
:100760004C0E9F6F740EA06FA16B000E9B6F9C0EC2
:100770009A6F81EC00F003EC01F08086809A120001
:1007800081968198818A839EFA0E0001956F10EC04
:1007900000F01DEC01F054EC00F00C0E9B6F3BECF4
:1007A00000F0010E9B6F3BEC00F00C0E9B6F3BECDE
:1007B00000F0010E9B6F3BEC00F04BEC00F0FA0EEA
:1007C0009B6F06EC00F0120054EC00F00C0E0001E0
:1007D0009B6F3BEC00F09B6B3BEC00F00C0E9B6FB7
:1007E0003BEC00F09B6B3BEC00F04BEC00F0838E9D
:1007F000640E956F10EC00F012009451D89094BFE5
:10080000E008D8A094079451956F1200200E9461CF
:1008100001D001D094BF942B9451956F1200000128
:10082000820520E0020E826301D036D0030E82637F
:1008300001D048D0040E826301D061D0050E8263DE
:1008400001D07BD0060E826301D08CD0070E82636C
:1008500001D0BCD0080E826301D0ECD0090E8263B7
:1008600056D122D1010E996F430E9C6F650E9D6F7C
:10087000A16F6E0E9E6F720EA06F740E9F6FA26BB3
:10088000000E9B6F9C0E9A6F81EC00F07A51946F72
:10089000956B6AEC01F03BD1010E996F610E9E6F72
:1008A000650E9D6F720E9C6F9F6FA06B000E9B6F0D
:1008B0009C0E9A6F81EC00F07951946F956B6AEC05
:1008C00001F025D1010E996F610E9D6F9F6F620E31
:1008D0009C6F630EA16F650EA26F6C0E9E6F6E0E05
:1008E000A06FA36B000E9B6F9C0E9A6F81EC00F0C3
:1008F0007751946F010E956F6AEC01F008D1010EEB
:10090000996F200EA06F610E9E6FA26F620EA16F95
:10091000650E9D6F6C0EA36F720E9C6F9F6FA46B24
:10092000000E9B6F9C0E9A6F81EC00F07851946FD3
:10093000010E956F6AEC01F0EAD0010E996F530E2B
:100940009C6F750E9D6F620E9E6F9F6B000E9B6F6E
:100950009C0E9A6F81EC00F07B51946F956B6AEC62
:1009600001F0D5D0010E996F540E9C6F720E9D6FE1
:10097000690E9E6F670E9F6F200EA06F310EA16FE4
:10098000A26B000E9B6F9C0E9A6F81EC00F07FA112
:100990000ED0020E996F4F0E9C6F6E0E9D6F9E6B68
:1009A000000E9B6F9C0E9A6F81EC00F0B0D0020E8F
:1009B000996F4F0E9C6F660E9D6F9E6F9F6B000E22
:1009C0009B6F9C0E9A6F81EC00F0A1D0010E996F85
:1009D000540E9C6F720E9D6F690E9E6F670E9F6F17
:1009E000200EA06F320EA16FA26B000E9B6F9C0EAB
:1009F0009A6F81EC00F07FA30ED0020E996F4F0E1C
:100A00009C6F6E0E9D6F9E6B000E9B6F9C0E9A6F7F
:100A100081EC00F07CD0020E996F4F0E9C6F660E39
:100A20009D6F9E6F9F6B000E9B6F9C0E9A6F81EC6B
:100A300000F06DD0010E996F350E9C6F310E9D6FD9
:100A4000200E9E6F530E9F6F6F0EA06F750EA16FDD
:100A50006E0EA26F640EA36FA46B000E9B6F9C0EB4
:100A60009A6F81EC00F0DB0E606F81530EE0020E96
:100A7000996F4F0E9C6F6E0E9D6F9E6B000E9B6F5D
:100A80009C0E9A6F81EC00F042D0020E996F4F0ECF
:100A90009C6F660E9D6F9E6F9F6B000E9B6F9C0EF2
:100AA0009A6F81EC00F033D0010E996F480E9C6F65
:100AB000610E9D6F660E9E6F6C0E9F6F650EA06F30
:100AC000720EA16FA26B000E9B6F9C0E9A6F81EC51
:100AD00000F080530EE0020E996F4F0E9C6F6E0E69
:100AE0009D6F9E6B000E9B6F9C0E9A6F81EC00F0C9
:100AF0000ED0020E996F4F0E9C6F660E9D6F9E6F0B
:100B00009F6B000E9B6F9C0E9A6F81EC00F058EC6F
:100B100000F012009351A96EA69EA69CA680A85034
:100B2000946F12000001766B0C0ECF6ECE6A12002D
:100B30000001936B8AEC05F00A0E94631200010E1B
:100B4000936F8AEC05F09451736F020E936F8AECE9
:100B500005F09451776F030E936F8AEC05F0945172
:100B6000786F040E936F8AEC05F09451796F050E3F
:100B7000936F8AEC05F094517A6F060E936F8AECAE
:100B800005F094517B6F070E936F8AEC05F094513A
:100B90007E6F080E936F8AEC05F09451806F090EFA
:100BA000936F8AEC05F09451816F0A0E936F8AEC73
:100BB00005F094517F6F1200010E0001996F200E15
:100BC000A06F490E9C6F690E9E6F6E0E9D6FA26F97
:100BD0006F0EA16F740E9F6FA36B000E9B6F9C0E28
:100BE0009A6F81EC00F0020E996F540E9C6F650EA7
:100BF0009D6F730E9E6F740E9F6F690EA06F6E0EC9
:100C0000A16F670EA26FA36B000E9B6F9C0E9A6F75
:100C100081EC00F058EC00F012000001822B090E6C
:100C2000826502D0010E826F0FEC04F01200000109
:100C3000820520E0020E826301D025D0030E82637C
:100C400001D02AD0040E826301D02FD0050E82631A
:100C500001D034D0060E826301D039D0070E8263F2
:100C600001D039D0080E826301D039D0090E8263D9
:100C700047D03ED07A51946F06EC04F095517A6FCC
:100C8000DDEC01F03DD07951946F06EC04F0955104
:100C9000796FDDEC01F034D07751946F06EC04F0FD
:100CA0009551776FDDEC01F02BD07851946F06EC05
:100CB00004F09551786FDDEC01F022D07B51946FF8
:100CC00006EC04F095517B6FDDEC01F019D07F81CB
:100CD00089EC02F015D07F8389EC02F011D08153AA
:100CE00002E0816B02D0010E816F89EC02F008D026
:100CF000805302E0806B02D0010E806FDDEC01F0CA
:100D00000FEC04F012000001820520E0020E826365
:100D100001D025D0030E826301D02AD0040E826355
:100D200001D02FD0050E826301D034D0060E82632D
:100D300001D039D0070E826301D039D0080E82630A
:100D400001D039D0090E826347D03ED07A51946FDA
:100D5000FDEC03F095517A6FDDEC01F03DD0795157
:100D6000946FFDEC03F09551796FDDEC01F034D018
:100D70007751946FFDEC03F09551776FDDEC01F046
:100D80002BD07851946FFDEC03F09551786FDDEC2A
:100D900001F022D07B51946FFDEC03F095517B6FF5
:100DA000DDEC01F019D07F9189EC02F015D07F9332
:100DB00089EC02F011D0815302E0816B02D0010E68
:100DC000816F89EC02F008D0805302E0806B02D082
:100DD000010E806FDDEC01F00FEC04F01200000159
:100DE0008207010E826102D0090E826F0FEC04F0BF
:100DF0001200F250956F9351A96E9451A86EA69E61
:100E0000A69CA684F26A550EA76EAA0EA76EA682AD
:100E10009551F26EA694A1A8FED7A1981200FF0EDC
:100E2000000173611200020E7325946F7351946177
:100E300001D094699451736FDDEC01F01200000E43
:100E4000000173651200020E735D946F945173611B
:100E500001D0946B9451736FDDEC01F0120000012E
:100E60007C5344E08092809A80888096CD90010ED9
:100E7000996F470E9C6F6F0E9D6F9E6F640E9F6FF4
:100E8000620EA06F790EA16F650EA26FA36B000EAC
:100E90009B6F9C0E9A6F81EC00F0020E996F946B21
:100EA000000E9B6F940E9A6F81EC00F058EC00F0EE
:100EB0007C6BFA0E956F10EC00F0FA0E956F10EC4B
:100EC00000F089EC02F0FA0E956F10EC00F0FA0ECB
:100ED000956F10EC00F08090060E946F28EC00F0F7
:100EE000E4EC03F0809A80988086120081A41200BE
:100EF0008080809A80888096DDEC01F0C0EC03F061
:100F0000010E996F480E9C6F450E9D6F4C0E9E6FA3
:100F10009F6F4F0EA06FA16B000E9B6F9C0E9A6F80
:100F200081EC00F0020E996F956B000E9B6F950E91
:100F30009A6F81EC00F058EC00F0010E7C6F89ECA8
:100F400002F0946B1B0E94610ED0808A8098640E20
:100F5000956F10EC00F0809A8088640E956F10EC0D
:100F600000F0942BEFD745EC03F0CCEC02F058ECFA
:100F700000F081B404D0A7EC03F07C6B01D0808238
:100F8000CD80120000017E2B040E7E6101D001D0C5
:100F90007E6B89EC02F0120000017E07040E7E6574
:100FA00002D0030E7E6F89EC02F012000001936BF9
:100FB0000A0E946FF9EC06F0010E936F7351946F63
:100FC000F9EC06F0020E936F7751946FF9EC06F08E
:100FD000030E936F7851946FF9EC06F0040E936F43
:100FE0007951946FF9EC06F0050E936F7A51946F76
:100FF000F9EC06F0060E936F7B51946FF9EC06F056
:10100000070E936F7E51946FF9EC06F0080E936F04
:101010008051946FF9EC06F0090E936F8151946F33
:10102000F9EC06F00A0E936F7F51946FF9EC06F01D
:10103000120080940001936B9153D8A412007C534A
:10104000D8B461D00D0E926301D010D0100E92630F
:1010500001D02AD0110E926301D030D0200E9263BD
:1010600001D036D0210E92634ED040D08F51906384
:101070008F630ED0756B825305E192EC05F0010E83
:10108000766F41D0826B010E936F92EC05F03BD0EE
:10109000752B92EC05F0090E756101D003D0766BCB
:1010A000728D31D0CD802FD0825305E1010E936F28
:1010B0000FEC07F028D017EC06F025D0825305E19D
:1010C000010E936F1FEC07F01ED083EC06F01BD0CF
:1010D0008F5190638F6317D0825305E1010E936F98
:1010E000C2EC07F010D00DEC06F00DD08F519063DC
:1010F0008F6309D0825305E1010E936FCCEC07F0AA
:1011000002D0EFEC06F00C0E926307D08F51906383
:101110008F6303D0826B2FEC07F08F51906F7C535D
:10112000D8B41200935307E045EC03F0CCEC02F086
:1011300058EC00F012008253D8A4846B1200000116
:10114000842B1E0E846101D00FD07C530CE081A44F
:101150000AD080828096808A826BCCEC02F045ECCB
:1011600003F058EC00F0846B83AC2ED07C532CE061
:101170007D532AE0855305E10A0E856F2FEC07F0B9
:1011800012008507010E996F200E9F6FA26F490E06
:10119000A06F4F0E9C6F660E9D6F9E6F6E0EA16FBF
:1011A000A36B000E9B6F9C0E9A6F81EC00F0010EFA
:1011B000866F070E876F300E85259B6F9C6BE0EC6A
:1011C00000F058EC00F012000A0E856112000A0EC1
:1011D000856F826BCCEC02F045EC03F058EC00F02C
:1011E0001200926A806A070E936E200E816EC00E06
:1011F000946E040E826E400E956E800E836E966A1B
:10120000846AD38ED38CD38AD398C26A0F0EC16EF0
:1012100098EC05F089EC02F0300ECD6E836B0C0E6D
:10122000CF6E9D809E90290ECA6E5C0ECB6E9D8205
:10123000A192F288F18CF292F086F19AF090F08807
:10124000F198F092F18EF28C8086020E946F28EC69
:1012500000F0C0EC03F0DCEC05F0020E946F28EC1B
:1012600000F0E4EC03F0F28E12000001936B745373
:10127000D8B4932B9351746FDDEC01F01200F1ECB4
:1012800008F0000E726530D072A905D0A7EC03F00B
:10129000CD807299F6D772A104D0D6EC07F0729186
:1012A000F0D772AB0AD035EC09F0CCEC02F058EC78
:1012B00000F092EC05F0729BE4D772AD08D0010EFD
:1012C000826F0FEC04F092EC05F0729DDAD772AFEA
:1012D00004D09FEC08F0729FD4D772A7D2D719EC34
:1012E00008F080947297CDD783BC09D07C6707D073
:1012F0007D6705D0010E7D6F7E6B2FEC07F083AC10
:10130000C0D77C67BED77D6BBCD70001726B736B97
:10131000746B756B766B776B786B796B7A6B7B6BB9
:101320007C6B7D6B7E6B010E7F6F010E806F010EFB
:10133000816F826B836B846B0A0E856F056A066A08
:10134000220E076E086A096A0A6A0B6A200E0C6E82
:101350004E0E0D6E780E0E6E0F6A106A116A010E37
:10136000126E136A146A7E0E156E300E166E6D0EB6
:10137000176E790E186E330E196E5B0E1A6E5F0EB5
:101380001B6E700E1C6E7F0E1D6E7B0E1E6E1F6A16
:10139000206A216A090E226E236A650E246E256A70
:1013A000770E266E1F0E276E4E0E286E3D0E296E8E
:1013B0004F0E2A6E470E2B6E5E0E2C6E370E2D6E64
:1013C000300E2E6E3C0E2F6E306A0E0E316E326A6B
:1013D000150E336E7E0E346E670E356E366A050E50
:1013E000376E5B0E386E700E396E3E0E3A6E3B6A8B
:1013F0003C6A3D6A3B0E3E6E3F6A406A416A426A01
:10140000436A446A456A7D0E466E1F0E476E0D0E96
:10141000486E3D0E496E6F0E4A6E470E4B6E5E0E65
:101420004C6E170E4D6E100E4E6E3C0E4F6E506A87
:101430000E0E516E526A150E536E1D0E546E670ECF
:10144000556E566A050E576E5B0E586E0F0E596E2E
:101450001C0E5A6E5B6A5C6A5D6A3B0E5E6E5F6A6A
:10146000010E866F876B886B896B8D6B010E8E6F9B
:101470008F6B906B916B926B3FEF09F0EACF01F0AD
:10148000E9CF02F0F4CF03F0F3CF04F0F0A209D0DB
:10149000F0A807D081B403D0809200017289F09245
:1014A0009ED0F2A207D0F2A805D0809200017281EE
:1014B000F29295D0F0A015D0F0A613D0000188B11B
:1014C000F18A88A1F19A882B8C2B8D5309E18B6BC3
:1014D0008C6BCC6A150ECB6E9E92CA84010E8D6FFA
:1014E000F0909EA269D000018E6B81A201D08E2B5C
:1014F0008D0505E08B2B8BB180848BA18094AA6B2A
:101500008D0508E0020E8D6301D00AD0030E8D63B5
:101510004AD015D0CC6A5C0ECB6E020E8D6F45D0D2
:101520008B050AE18C0508E18B6B8C6B8A6B706B09
:10153000716B030E8D6F39D0010EAA6F36D0020E7B
:101540008B6333D08C5102082BE38B6B8C6B0C0EAE
:101550008A6108D08A2BD890703771378E05D8B43D
:10156000708123D03F0E7015926F060EAB6FAB5398
:1015700005E0D89071337033AB07FAD71F0E7015A2
:10158000916F050EAB6FAB5305E0D890713370339C
:10159000AB07FAD770518F6F7287010EAA6F05D013
:1015A000010EAA6F02D0010EAA6FAA5304E08D6B40
:1015B000CA94F19A80949E929EA011D09DA00FD0C3
:1015C000090E0001756103D07653D8A4728B832B6A
:1015D000050E836101D002D0836B728F9E9004C090
:1015E000F3FF03C0F4FF02C0E9FF01C0EAFF1100EE
:020000040030CA
:0E000000088D1F1EFF8080FF0FC00FE00F4015
:00000001FF
